{
  "contractName": "Casino",
  "abi": [
    {
      "constant": true,
      "inputs": [],
      "name": "numberOfBets",
      "outputs": [
        {
          "name": "",
          "type": "uint256"
        }
      ],
      "payable": false,
      "stateMutability": "view",
      "type": "function"
    },
    {
      "constant": true,
      "inputs": [
        {
          "name": "",
          "type": "address"
        }
      ],
      "name": "playerInfo",
      "outputs": [
        {
          "name": "amountBet",
          "type": "uint256"
        },
        {
          "name": "numberSelected",
          "type": "uint256"
        }
      ],
      "payable": false,
      "stateMutability": "view",
      "type": "function"
    },
    {
      "constant": true,
      "inputs": [],
      "name": "owner",
      "outputs": [
        {
          "name": "",
          "type": "address"
        }
      ],
      "payable": false,
      "stateMutability": "view",
      "type": "function"
    },
    {
      "constant": true,
      "inputs": [],
      "name": "minimumBet",
      "outputs": [
        {
          "name": "",
          "type": "uint256"
        }
      ],
      "payable": false,
      "stateMutability": "view",
      "type": "function"
    },
    {
      "constant": true,
      "inputs": [],
      "name": "maxAmountOfBets",
      "outputs": [
        {
          "name": "",
          "type": "uint256"
        }
      ],
      "payable": false,
      "stateMutability": "view",
      "type": "function"
    },
    {
      "constant": true,
      "inputs": [
        {
          "name": "",
          "type": "uint256"
        }
      ],
      "name": "players",
      "outputs": [
        {
          "name": "",
          "type": "address"
        }
      ],
      "payable": false,
      "stateMutability": "view",
      "type": "function"
    },
    {
      "constant": true,
      "inputs": [],
      "name": "totalBet",
      "outputs": [
        {
          "name": "",
          "type": "uint256"
        }
      ],
      "payable": false,
      "stateMutability": "view",
      "type": "function"
    },
    {
      "inputs": [
        {
          "name": "_minimumBet",
          "type": "uint256"
        }
      ],
      "payable": false,
      "stateMutability": "nonpayable",
      "type": "constructor"
    },
    {
      "payable": true,
      "stateMutability": "payable",
      "type": "fallback"
    },
    {
      "constant": false,
      "inputs": [
        {
          "name": "numberSelected",
          "type": "uint256"
        }
      ],
      "name": "bet",
      "outputs": [],
      "payable": true,
      "stateMutability": "payable",
      "type": "function"
    },
    {
      "constant": true,
      "inputs": [
        {
          "name": "player",
          "type": "address"
        }
      ],
      "name": "checkPlayerExists",
      "outputs": [
        {
          "name": "",
          "type": "bool"
        }
      ],
      "payable": false,
      "stateMutability": "view",
      "type": "function"
    },
    {
      "constant": false,
      "inputs": [],
      "name": "generateNumberWinner",
      "outputs": [],
      "payable": false,
      "stateMutability": "nonpayable",
      "type": "function"
    },
    {
      "constant": false,
      "inputs": [
        {
          "name": "numberWinner",
          "type": "uint256"
        }
      ],
      "name": "distributePrizes",
      "outputs": [],
      "payable": false,
      "stateMutability": "nonpayable",
      "type": "function"
    }
  ],
  "bytecode": "0x6080604052600260045534801561001557600080fd5b50604051602080610619833981016040525160008054600160a060020a03191633600160a060020a0316179055801561004e5760018190555b506105bb8061005e6000396000f3006080604052600436106100ae5763ffffffff7c01000000000000000000000000000000000000000000000000000000006000350416630a50e36181146100b05780632ca8c6d3146100c55780634081d916146100ec5780634b114691146101215780636ca3fc3b1461015b5780637365870b146101735780638da5cb5b1461017e578063c38a8afd146101af578063e08a96cd146101c4578063f71d96cb146101d9578063fe5e1853146101f1575b005b3480156100bc57600080fd5b506100ae610206565b3480156100d157600080fd5b506100da610219565b60408051918252519081900360200190f35b3480156100f857600080fd5b5061010d600160a060020a036004351661021f565b604080519115158252519081900360200190f35b34801561012d57600080fd5b50610142600160a060020a036004351661027d565b6040805192835260208301919091528051918290030190f35b34801561016757600080fd5b506100ae600435610296565b6100ae6004356103ec565b34801561018a57600080fd5b506101936104c2565b60408051600160a060020a039092168252519081900360200190f35b3480156101bb57600080fd5b506100da6104d1565b3480156101d057600080fd5b506100da6104d7565b3480156101e557600080fd5b506101936004356104dd565b3480156101fd57600080fd5b506100da610505565b6001600a43060161021681610296565b50565b60035481565b6000805b6005548110156102725782600160a060020a031660058281548110151561024657fe5b600091825260209091200154600160a060020a0316141561026a5760019150610277565b600101610223565b600091505b50919050565b6006602052600090815260409020805460019091015482565b61029e610525565b6000808080805b6005548410156103445760058054859081106102bd57fe5b6000918252602080832090910154600160a060020a0316808352600690915260409091206001015490935087141561031657828686606481106102fc57fe5b600160a060020a0390921660209290920201526001909401935b600160a060020a038316600090815260066020526040812081815560019081019190915593909301926102a5565b6000610351600582610545565b505060025460649004905060005b848110156103db57600086826064811061037557fe5b6020020151600160a060020a0316146103d35785816064811061039457fe5b6020020151600160a060020a03166108fc839081150290604051600060405180830381858888f193505050501580156103d1573d6000803e3d6000fd5b505b60010161035f565b6103e361050b565b50505050505050565b6103f53361021f565b156103ff57600080fd5b600181101580156104115750600a8111155b151561041c57600080fd5b60015434101561042b57600080fd5b600160a060020a033316600081815260066020526040812034808255600191820185905560038054830181556005805493840181559093527f036b6384b5eca791c62761152d0c79bb0604c104a5fb6f4eb0703f3154bb3db0909101805473ffffffffffffffffffffffffffffffffffffffff19169093179092556002805490920190915560045490541061021657610216610206565b600054600160a060020a031681565b60015481565b60045481565b60058054829081106104eb57fe5b600091825260209091200154600160a060020a0316905081565b60025481565b6000610518600582610545565b5060006002819055600355565b610c80604051908101604052806064906020820280388339509192915050565b8154818355818111156105695760008381526020902061056991810190830161056e565b505050565b61058c91905b808211156105885760008155600101610574565b5090565b905600a165627a7a72305820ebdd29590cd5c649e762b758c1ad77392873da080640237b5d2e31793f26f7f00029",
  "source": "pragma solidity ^0.4.20;\r\n\r\ncontract Casino {\r\n    address public owner;\r\n    uint256 public minimumBet;\r\n    uint256 public totalBet;\r\n    uint256 public numberOfBets;\r\n    uint256 public maxAmountOfBets = 2;\r\n\r\n    address[] public players;\r\n\r\n    struct Player {\r\n        uint256 amountBet;\r\n        uint256 numberSelected;\r\n    }\r\n\r\n    // The address of the player and => the user info\r\n    mapping(address => Player) public playerInfo;\r\n\r\n    constructor(uint256 _minimumBet) public {\r\n        owner = msg.sender;\r\n        if(_minimumBet != 0 ) minimumBet = _minimumBet;\r\n    }\r\n\r\n    // To bet for a number between 1 and 10 both inclusive\r\n    function bet(uint256 numberSelected) public payable {\r\n        require(!checkPlayerExists(msg.sender));\r\n        require(numberSelected >= 1 && numberSelected <= 10);\r\n        require(msg.value >= minimumBet);\r\n        playerInfo[msg.sender].amountBet = msg.value;\r\n        playerInfo[msg.sender].numberSelected = numberSelected;\r\n        numberOfBets++;\r\n        players.push(msg.sender);\r\n        totalBet += msg.value;\r\n        if(numberOfBets >= maxAmountOfBets) generateNumberWinner();\r\n    }\r\n\r\n    function checkPlayerExists(address player) public constant returns(bool){\r\n        for(uint256 i = 0; i < players.length; i++){\r\n            if(players[i] == player) return true;\r\n        }\r\n        return false;\r\n    }\r\n\r\n    // Generates a number between 1 and 10 that will be the winner\r\n    function generateNumberWinner() public {\r\n        uint256 numberGenerated = block.number % 10 + 1; // This isn't secure\r\n        distributePrizes(numberGenerated);\r\n    }\r\n\r\n    // Sends the corresponding ether to each winner depending on the total bets\r\n    function distributePrizes(uint256 numberWinner) public {\r\n        address[100] memory winners; // We have to create a temporary in memory array with fixed size\r\n        uint256 count = 0; // This is the count for the array of winners\r\n        for(uint256 i = 0; i < players.length; i++){\r\n            address playerAddress = players[i];\r\n            if(playerInfo[playerAddress].numberSelected == numberWinner){\r\n                winners[count] = playerAddress;\r\n                count++;\r\n            }\r\n            delete playerInfo[playerAddress]; // Delete all the players\r\n        }\r\n        players.length = 0; // Delete all the players array\r\n        uint256 winnerEtherAmount = totalBet / winners.length; // How much each winner gets\r\n        for(uint256 j = 0; j < count; j++){\r\n            if(winners[j] != address(0)) // Check that the address in this fixed array is not empty\r\n            winners[j].transfer(winnerEtherAmount);\r\n        }\r\n        resetData();\r\n    }\r\n\r\n    function resetData() private {\r\n        players.length = 0; // Delete all the players array\r\n        totalBet = 0;\r\n        numberOfBets = 0;\r\n    }\r\n\r\n    function() public payable {}\r\n}",
  "sourcePath": "C:\\Users\\Dell\\casino\\contracts\\Casino.sol",
  "compiler": {
    "name": "solc",
    "version": "0.4.23+commit.124ca40d.Emscripten.clang"
  },
  "schemaVersion": "2.0.0",
  "updatedAt": "2018-05-25T12:36:01.653Z"
}